{
  "contractName": "CirrusCoinToken",
  "abi": [
    {
      "constant": true,
      "inputs": [],
      "name": "mintingFinished",
      "outputs": [
        {
          "name": "",
          "type": "bool"
        }
      ],
      "payable": false,
      "stateMutability": "view",
      "type": "function"
    },
    {
      "constant": true,
      "inputs": [],
      "name": "name",
      "outputs": [
        {
          "name": "",
          "type": "string"
        }
      ],
      "payable": false,
      "stateMutability": "view",
      "type": "function"
    },
    {
      "constant": false,
      "inputs": [
        {
          "name": "_spender",
          "type": "address"
        },
        {
          "name": "_value",
          "type": "uint256"
        }
      ],
      "name": "approve",
      "outputs": [
        {
          "name": "",
          "type": "bool"
        }
      ],
      "payable": false,
      "stateMutability": "nonpayable",
      "type": "function"
    },
    {
      "constant": true,
      "inputs": [],
      "name": "totalSupply",
      "outputs": [
        {
          "name": "",
          "type": "uint256"
        }
      ],
      "payable": false,
      "stateMutability": "view",
      "type": "function"
    },
    {
      "constant": false,
      "inputs": [
        {
          "name": "_from",
          "type": "address"
        },
        {
          "name": "_to",
          "type": "address"
        },
        {
          "name": "_value",
          "type": "uint256"
        }
      ],
      "name": "transferFrom",
      "outputs": [
        {
          "name": "",
          "type": "bool"
        }
      ],
      "payable": false,
      "stateMutability": "nonpayable",
      "type": "function"
    },
    {
      "constant": true,
      "inputs": [],
      "name": "decimals",
      "outputs": [
        {
          "name": "",
          "type": "uint8"
        }
      ],
      "payable": false,
      "stateMutability": "view",
      "type": "function"
    },
    {
      "constant": false,
      "inputs": [
        {
          "name": "_to",
          "type": "address"
        },
        {
          "name": "_amount",
          "type": "uint256"
        }
      ],
      "name": "mint",
      "outputs": [
        {
          "name": "",
          "type": "bool"
        }
      ],
      "payable": false,
      "stateMutability": "nonpayable",
      "type": "function"
    },
    {
      "constant": false,
      "inputs": [
        {
          "name": "_value",
          "type": "uint256"
        }
      ],
      "name": "burn",
      "outputs": [],
      "payable": false,
      "stateMutability": "nonpayable",
      "type": "function"
    },
    {
      "constant": false,
      "inputs": [
        {
          "name": "_spender",
          "type": "address"
        },
        {
          "name": "_subtractedValue",
          "type": "uint256"
        }
      ],
      "name": "decreaseApproval",
      "outputs": [
        {
          "name": "",
          "type": "bool"
        }
      ],
      "payable": false,
      "stateMutability": "nonpayable",
      "type": "function"
    },
    {
      "constant": true,
      "inputs": [
        {
          "name": "_owner",
          "type": "address"
        }
      ],
      "name": "balanceOf",
      "outputs": [
        {
          "name": "balance",
          "type": "uint256"
        }
      ],
      "payable": false,
      "stateMutability": "view",
      "type": "function"
    },
    {
      "constant": false,
      "inputs": [],
      "name": "finishMinting",
      "outputs": [
        {
          "name": "",
          "type": "bool"
        }
      ],
      "payable": false,
      "stateMutability": "nonpayable",
      "type": "function"
    },
    {
      "constant": true,
      "inputs": [],
      "name": "owner",
      "outputs": [
        {
          "name": "",
          "type": "address"
        }
      ],
      "payable": false,
      "stateMutability": "view",
      "type": "function"
    },
    {
      "constant": true,
      "inputs": [],
      "name": "symbol",
      "outputs": [
        {
          "name": "",
          "type": "string"
        }
      ],
      "payable": false,
      "stateMutability": "view",
      "type": "function"
    },
    {
      "constant": false,
      "inputs": [
        {
          "name": "_to",
          "type": "address"
        },
        {
          "name": "_value",
          "type": "uint256"
        }
      ],
      "name": "transfer",
      "outputs": [
        {
          "name": "",
          "type": "bool"
        }
      ],
      "payable": false,
      "stateMutability": "nonpayable",
      "type": "function"
    },
    {
      "constant": false,
      "inputs": [
        {
          "name": "_spender",
          "type": "address"
        },
        {
          "name": "_addedValue",
          "type": "uint256"
        }
      ],
      "name": "increaseApproval",
      "outputs": [
        {
          "name": "",
          "type": "bool"
        }
      ],
      "payable": false,
      "stateMutability": "nonpayable",
      "type": "function"
    },
    {
      "constant": true,
      "inputs": [
        {
          "name": "_owner",
          "type": "address"
        },
        {
          "name": "_spender",
          "type": "address"
        }
      ],
      "name": "allowance",
      "outputs": [
        {
          "name": "",
          "type": "uint256"
        }
      ],
      "payable": false,
      "stateMutability": "view",
      "type": "function"
    },
    {
      "constant": false,
      "inputs": [
        {
          "name": "newOwner",
          "type": "address"
        }
      ],
      "name": "transferOwnership",
      "outputs": [],
      "payable": false,
      "stateMutability": "nonpayable",
      "type": "function"
    },
    {
      "anonymous": false,
      "inputs": [
        {
          "indexed": true,
          "name": "to",
          "type": "address"
        },
        {
          "indexed": false,
          "name": "amount",
          "type": "uint256"
        }
      ],
      "name": "Mint",
      "type": "event"
    },
    {
      "anonymous": false,
      "inputs": [],
      "name": "MintFinished",
      "type": "event"
    },
    {
      "anonymous": false,
      "inputs": [
        {
          "indexed": true,
          "name": "burner",
          "type": "address"
        },
        {
          "indexed": false,
          "name": "value",
          "type": "uint256"
        }
      ],
      "name": "Burn",
      "type": "event"
    },
    {
      "anonymous": false,
      "inputs": [
        {
          "indexed": true,
          "name": "previousOwner",
          "type": "address"
        },
        {
          "indexed": true,
          "name": "newOwner",
          "type": "address"
        }
      ],
      "name": "OwnershipTransferred",
      "type": "event"
    },
    {
      "anonymous": false,
      "inputs": [
        {
          "indexed": true,
          "name": "owner",
          "type": "address"
        },
        {
          "indexed": true,
          "name": "spender",
          "type": "address"
        },
        {
          "indexed": false,
          "name": "value",
          "type": "uint256"
        }
      ],
      "name": "Approval",
      "type": "event"
    },
    {
      "anonymous": false,
      "inputs": [
        {
          "indexed": true,
          "name": "from",
          "type": "address"
        },
        {
          "indexed": true,
          "name": "to",
          "type": "address"
        },
        {
          "indexed": false,
          "name": "value",
          "type": "uint256"
        }
      ],
      "name": "Transfer",
      "type": "event"
    }
  ],
  "bytecode": "0x606060405260038054600160a860020a03191633600160a060020a0316179055610c3d8061002e6000396000f3006060604052600436106100f05763ffffffff7c010000000000000000000000000000000000000000000000000000000060003504166305d2035b81146100f557806306fdde031461011c578063095ea7b3146101a657806318160ddd146101c857806323b872dd146101ed578063313ce5671461021557806340c10f191461023e57806342966c6814610260578063661884631461027857806370a082311461029a5780637d64bcb4146102b95780638da5cb5b146102cc57806395d89b41146102fb578063a9059cbb1461030e578063d73dd62314610330578063dd62ed3e14610352578063f2fde38b14610377575b600080fd5b341561010057600080fd5b610108610396565b604051901515815260200160405180910390f35b341561012757600080fd5b61012f6103a6565b60405160208082528190810183818151815260200191508051906020019080838360005b8381101561016b578082015183820152602001610153565b50505050905090810190601f1680156101985780820380516001836020036101000a031916815260200191505b509250505060405180910390f35b34156101b157600080fd5b610108600160a060020a03600435166024356103dd565b34156101d357600080fd5b6101db610449565b60405190815260200160405180910390f35b34156101f857600080fd5b610108600160a060020a036004358116906024351660443561044f565b341561022057600080fd5b6102286105d1565b60405160ff909116815260200160405180910390f35b341561024957600080fd5b610108600160a060020a03600435166024356105d6565b341561026b57600080fd5b6102766004356106e3565b005b341561028357600080fd5b610108600160a060020a036004351660243561079e565b34156102a557600080fd5b6101db600160a060020a0360043516610898565b34156102c457600080fd5b6101086108b3565b34156102d757600080fd5b6102df61093e565b604051600160a060020a03909116815260200160405180910390f35b341561030657600080fd5b61012f61094d565b341561031957600080fd5b610108600160a060020a0360043516602435610984565b341561033b57600080fd5b610108600160a060020a0360043516602435610a7f565b341561035d57600080fd5b6101db600160a060020a0360043581169060243516610b23565b341561038257600080fd5b610276600160a060020a0360043516610b4e565b60035460a060020a900460ff1681565b60408051908101604052600b81527f43697272757320436f696e000000000000000000000000000000000000000000602082015281565b600160a060020a03338116600081815260026020908152604080832094871680845294909152808220859055909291907f8c5be1e5ebec7d5bd14f71427d1e84f3dd0314c0f7b2291e5b200ac8c7c3b9259085905190815260200160405180910390a350600192915050565b60005481565b6000600160a060020a038316151561046657600080fd5b600160a060020a03841660009081526001602052604090205482111561048b57600080fd5b600160a060020a03808516600090815260026020908152604080832033909416835292905220548211156104be57600080fd5b600160a060020a0384166000908152600160205260409020546104e7908363ffffffff610be916565b600160a060020a03808616600090815260016020526040808220939093559085168152205461051c908363ffffffff610bfb16565b600160a060020a03808516600090815260016020908152604080832094909455878316825260028152838220339093168252919091522054610564908363ffffffff610be916565b600160a060020a03808616600081815260026020908152604080832033861684529091529081902093909355908516917fddf252ad1be2c89b69c2b068fc378daa952ba7f163c4a11628f55a4df523b3ef9085905190815260200160405180910390a35060019392505050565b601281565b60035460009033600160a060020a039081169116146105f457600080fd5b60035460a060020a900460ff161561060b57600080fd5b60005461061e908363ffffffff610bfb16565b6000908155600160a060020a038416815260016020526040902054610649908363ffffffff610bfb16565b600160a060020a0384166000818152600160205260409081902092909255907f0f6798a560793a54c3bcfe86a93cde1e73087d944c0ea20544137d41213968859084905190815260200160405180910390a2600160a060020a03831660007fddf252ad1be2c89b69c2b068fc378daa952ba7f163c4a11628f55a4df523b3ef8460405190815260200160405180910390a350600192915050565b600160a060020a03331660009081526001602052604081205482111561070857600080fd5b5033600160a060020a03811660009081526001602052604090205461072d9083610be9565b600160a060020a0382166000908152600160205260408120919091555461075a908363ffffffff610be916565b600055600160a060020a0381167fcc16f5dbb4873280815c1ee09dbd06736cffcc184412cf7a71a0fdb75d397ca58360405190815260200160405180910390a25050565b600160a060020a033381166000908152600260209081526040808320938616835292905290812054808311156107fb57600160a060020a033381166000908152600260209081526040808320938816835292905290812055610832565b61080b818463ffffffff610be916565b600160a060020a033381166000908152600260209081526040808320938916835292905220555b600160a060020a0333811660008181526002602090815260408083209489168084529490915290819020547f8c5be1e5ebec7d5bd14f71427d1e84f3dd0314c0f7b2291e5b200ac8c7c3b925915190815260200160405180910390a35060019392505050565b600160a060020a031660009081526001602052604090205490565b60035460009033600160a060020a039081169116146108d157600080fd5b60035460a060020a900460ff16156108e857600080fd5b6003805474ff0000000000000000000000000000000000000000191660a060020a1790557fae5184fba832cb2b1f702aca6117b8d265eaf03ad33eb133f19dde0f5920fa0860405160405180910390a150600190565b600354600160a060020a031681565b60408051908101604052600381527f4352430000000000000000000000000000000000000000000000000000000000602082015281565b6000600160a060020a038316151561099b57600080fd5b600160a060020a0333166000908152600160205260409020548211156109c057600080fd5b600160a060020a0333166000908152600160205260409020546109e9908363ffffffff610be916565b600160a060020a033381166000908152600160205260408082209390935590851681522054610a1e908363ffffffff610bfb16565b600160a060020a0380851660008181526001602052604090819020939093559133909116907fddf252ad1be2c89b69c2b068fc378daa952ba7f163c4a11628f55a4df523b3ef9085905190815260200160405180910390a350600192915050565b600160a060020a033381166000908152600260209081526040808320938616835292905290812054610ab7908363ffffffff610bfb16565b600160a060020a0333811660008181526002602090815260408083209489168084529490915290819020849055919290917f8c5be1e5ebec7d5bd14f71427d1e84f3dd0314c0f7b2291e5b200ac8c7c3b92591905190815260200160405180910390a350600192915050565b600160a060020a03918216600090815260026020908152604080832093909416825291909152205490565b60035433600160a060020a03908116911614610b6957600080fd5b600160a060020a0381161515610b7e57600080fd5b600354600160a060020a0380831691167f8be0079c531659141344cd1fd0a4f28419497f9722a3daafe3b4186f6b6457e060405160405180910390a36003805473ffffffffffffffffffffffffffffffffffffffff1916600160a060020a0392909216919091179055565b600082821115610bf557fe5b50900390565b600082820183811015610c0a57fe5b93925050505600a165627a7a723058202fca6fa03ae37e25962f0210469b2516535f08bd32251b129504c1483946af080029",
  "source": "pragma solidity ^0.4.18;\r\n\r\nimport \"../crowdsale/CappedCrowdsale.sol\";\r\nimport \"../crowdsale/RefundableCrowdsale.sol\";\r\nimport \"../token/MintableToken.sol\";\r\nimport '../ownership/Ownable.sol';\r\n\r\n\r\n/**\r\n * @title SampleCrowdsaleToken\r\n * @dev ERC20 Token that can be minted and burned.\r\n */\r\ncontract CirrusCoinToken is MintableToken {\r\n\r\n  string public constant name = \"Cirrus Coin\";\r\n  string public constant symbol = \"CRC\";\r\n  uint8 public constant decimals = 18;\r\n\r\n}\r\n\r\n/**\r\n * @title GreensparcCrowdsale\r\n * @dev Full-fledged crowdsale.\r\n */\r\ncontract GreensparcCrowdsale is CappedCrowdsale, RefundableCrowdsale {\r\n\r\n  function GreensparcCrowdsale(uint256 _startTime, uint256 _endTime, uint256 _rate, uint256 _goal, uint256 _cap, address _wallet) public\r\n    CappedCrowdsale(_cap)\r\n    FinalizableCrowdsale()\r\n    RefundableCrowdsale(_goal)\r\n    Crowdsale(_startTime, _endTime, _rate, _wallet)\r\n  {\r\n    //As goal needs to be met for a successful crowdsale\r\n    //the value needs to less or equal than a cap which is limit for accepted funds\r\n    require(_goal <= _cap);\r\n  }\r\n\r\n  function createTokenContract() internal returns (MintableToken) {\r\n    return new CirrusCoinToken();\r\n  }\r\n\r\n  function rateChange(uint256 _newRate) public onlyOwner {\r\n    rate = _newRate;\r\n  }\r\n  \r\n}\r\n",
  "sourcePath": "C:\\Users\\Nagaganesh Jaladanki\\OneDrive\\Documents\\Coding\\GreenSparc_Project\\ICO\\contracts\\ico\\GreensparcCrowdsale.sol",
  "compiler": {
    "name": "solc",
    "version": "0.4.18+commit.9cf6e910.Emscripten.clang"
  },
  "schemaVersion": "1.0.1",
  "updatedAt": "2018-01-31T22:49:12.478Z"
}