{
  "contractName": "Crowdsale",
  "abi": [
    {
      "constant": true,
      "inputs": [],
      "name": "rate",
      "outputs": [
        {
          "name": "",
          "type": "uint256"
        }
      ],
      "payable": false,
      "stateMutability": "view",
      "type": "function"
    },
    {
      "constant": true,
      "inputs": [],
      "name": "endTime",
      "outputs": [
        {
          "name": "",
          "type": "uint256"
        }
      ],
      "payable": false,
      "stateMutability": "view",
      "type": "function"
    },
    {
      "constant": true,
      "inputs": [],
      "name": "weiRaised",
      "outputs": [
        {
          "name": "",
          "type": "uint256"
        }
      ],
      "payable": false,
      "stateMutability": "view",
      "type": "function"
    },
    {
      "constant": true,
      "inputs": [],
      "name": "wallet",
      "outputs": [
        {
          "name": "",
          "type": "address"
        }
      ],
      "payable": false,
      "stateMutability": "view",
      "type": "function"
    },
    {
      "constant": true,
      "inputs": [],
      "name": "startTime",
      "outputs": [
        {
          "name": "",
          "type": "uint256"
        }
      ],
      "payable": false,
      "stateMutability": "view",
      "type": "function"
    },
    {
      "constant": false,
      "inputs": [
        {
          "name": "beneficiary",
          "type": "address"
        }
      ],
      "name": "buyTokens",
      "outputs": [],
      "payable": true,
      "stateMutability": "payable",
      "type": "function"
    },
    {
      "constant": true,
      "inputs": [],
      "name": "hasEnded",
      "outputs": [
        {
          "name": "",
          "type": "bool"
        }
      ],
      "payable": false,
      "stateMutability": "view",
      "type": "function"
    },
    {
      "constant": true,
      "inputs": [],
      "name": "token",
      "outputs": [
        {
          "name": "",
          "type": "address"
        }
      ],
      "payable": false,
      "stateMutability": "view",
      "type": "function"
    },
    {
      "inputs": [
        {
          "name": "_startTime",
          "type": "uint256"
        },
        {
          "name": "_endTime",
          "type": "uint256"
        },
        {
          "name": "_rate",
          "type": "uint256"
        },
        {
          "name": "_wallet",
          "type": "address"
        }
      ],
      "payable": false,
      "stateMutability": "nonpayable",
      "type": "constructor"
    },
    {
      "payable": true,
      "stateMutability": "payable",
      "type": "fallback"
    },
    {
      "anonymous": false,
      "inputs": [
        {
          "indexed": true,
          "name": "purchaser",
          "type": "address"
        },
        {
          "indexed": true,
          "name": "beneficiary",
          "type": "address"
        },
        {
          "indexed": false,
          "name": "value",
          "type": "uint256"
        },
        {
          "indexed": false,
          "name": "amount",
          "type": "uint256"
        }
      ],
      "name": "TokenPurchase",
      "type": "event"
    },
    {
      "anonymous": false,
      "inputs": [
        {
          "indexed": false,
          "name": "new_rate",
          "type": "uint256"
        }
      ],
      "name": "TokenRateChange",
      "type": "event"
    }
  ],
  "bytecode": "0x6060604052341561000f57600080fd5b604051608080611b3d833981016040528080519190602001805191906020018051919060200180519150504284101561004757600080fd5b8383101561005457600080fd5b6000821161006157600080fd5b600160a060020a038116151561007657600080fd5b61008b6401000000006103a96100cd82021704565b60008054600160a060020a0319908116600160a060020a0393841617909155600195909555600293909355600491909155600380549093169116179055610102565b60006100d76100f2565b604051809103906000f08015156100ed57600080fd5b905090565b604051610b118061102c83390190565b610f1b806101116000396000f30060606040526004361061008d5763ffffffff7c01000000000000000000000000000000000000000000000000000000006000350416632c4e722e81146100985780633197cbb6146100bd5780634042b66f146100d0578063521eb273146100e357806378e9792514610112578063ec8ac4d814610125578063ecb70fb714610139578063fc0c546a14610160575b61009633610173565b005b34156100a357600080fd5b6100ab6102c0565b60405190815260200160405180910390f35b34156100c857600080fd5b6100ab6102c6565b34156100db57600080fd5b6100ab6102cc565b34156100ee57600080fd5b6100f66102d2565b604051600160a060020a03909116815260200160405180910390f35b341561011d57600080fd5b6100ab6102e1565b610096600160a060020a0360043516610173565b341561014457600080fd5b61014c6102e7565b604051901515815260200160405180910390f35b341561016b57600080fd5b6100f66102ef565b600080600160a060020a038316151561018b57600080fd5b6101936102fe565b151561019e57600080fd5b6004543492506101b590839063ffffffff61032e16565b6005549091506101cb908363ffffffff61036416565b60055560008054600160a060020a0316906340c10f199085908490604051602001526040517c010000000000000000000000000000000000000000000000000000000063ffffffff8516028152600160a060020a0390921660048301526024820152604401602060405180830381600087803b151561024957600080fd5b6102c65a03f1151561025a57600080fd5b505050604051805190505082600160a060020a031633600160a060020a03167f623b3804fa71d67900d064613da8f94b9617215ee90799290593e1745087ad18848460405191825260208201526040908101905180910390a36102bb610373565b505050565b60045481565b60025481565b60055481565b600354600160a060020a031681565b60015481565b600254421190565b600054600160a060020a031681565b6000806000600154421015801561031757506002544211155b9150503415158180156103275750805b9250505090565b600080831515610341576000915061035d565b5082820282848281151561035157fe5b041461035957fe5b8091505b5092915050565b60008282018381101561035957fe5b600354600160a060020a03163480156108fc0290604051600060405180830381858888f1935050505015156103a757600080fd5b565b60006103b36103ce565b604051809103906000f08015156103c957600080fd5b905090565b604051610b11806103df833901905600606060405260038054600160a860020a03191633600160a060020a0316179055610ae38061002e6000396000f3006060604052600436106100cf5763ffffffff7c010000000000000000000000000000000000000000000000000000000060003504166305d2035b81146100d4578063095ea7b3146100fb57806318160ddd1461011d57806323b872dd1461014257806340c10f191461016a57806342966c681461018c57806366188463146101a457806370a08231146101c65780637d64bcb4146101e55780638da5cb5b146101f8578063a9059cbb14610227578063d73dd62314610249578063dd62ed3e1461026b578063f2fde38b14610290575b600080fd5b34156100df57600080fd5b6100e76102af565b604051901515815260200160405180910390f35b341561010657600080fd5b6100e7600160a060020a03600435166024356102bf565b341561012857600080fd5b61013061032b565b60405190815260200160405180910390f35b341561014d57600080fd5b6100e7600160a060020a0360043581169060243516604435610331565b341561017557600080fd5b6100e7600160a060020a03600435166024356104b3565b341561019757600080fd5b6101a26004356105c0565b005b34156101af57600080fd5b6100e7600160a060020a036004351660243561067b565b34156101d157600080fd5b610130600160a060020a0360043516610775565b34156101f057600080fd5b6100e7610790565b341561020357600080fd5b61020b61081b565b604051600160a060020a03909116815260200160405180910390f35b341561023257600080fd5b6100e7600160a060020a036004351660243561082a565b341561025457600080fd5b6100e7600160a060020a0360043516602435610925565b341561027657600080fd5b610130600160a060020a03600435811690602435166109c9565b341561029b57600080fd5b6101a2600160a060020a03600435166109f4565b60035460a060020a900460ff1681565b600160a060020a03338116600081815260026020908152604080832094871680845294909152808220859055909291907f8c5be1e5ebec7d5bd14f71427d1e84f3dd0314c0f7b2291e5b200ac8c7c3b9259085905190815260200160405180910390a350600192915050565b60005481565b6000600160a060020a038316151561034857600080fd5b600160a060020a03841660009081526001602052604090205482111561036d57600080fd5b600160a060020a03808516600090815260026020908152604080832033909416835292905220548211156103a057600080fd5b600160a060020a0384166000908152600160205260409020546103c9908363ffffffff610a8f16565b600160a060020a0380861660009081526001602052604080822093909355908516815220546103fe908363ffffffff610aa116565b600160a060020a03808516600090815260016020908152604080832094909455878316825260028152838220339093168252919091522054610446908363ffffffff610a8f16565b600160a060020a03808616600081815260026020908152604080832033861684529091529081902093909355908516917fddf252ad1be2c89b69c2b068fc378daa952ba7f163c4a11628f55a4df523b3ef9085905190815260200160405180910390a35060019392505050565b60035460009033600160a060020a039081169116146104d157600080fd5b60035460a060020a900460ff16156104e857600080fd5b6000546104fb908363ffffffff610aa116565b6000908155600160a060020a038416815260016020526040902054610526908363ffffffff610aa116565b600160a060020a0384166000818152600160205260409081902092909255907f0f6798a560793a54c3bcfe86a93cde1e73087d944c0ea20544137d41213968859084905190815260200160405180910390a2600160a060020a03831660007fddf252ad1be2c89b69c2b068fc378daa952ba7f163c4a11628f55a4df523b3ef8460405190815260200160405180910390a350600192915050565b600160a060020a0333166000908152600160205260408120548211156105e557600080fd5b5033600160a060020a03811660009081526001602052604090205461060a9083610a8f565b600160a060020a03821660009081526001602052604081209190915554610637908363ffffffff610a8f16565b600055600160a060020a0381167fcc16f5dbb4873280815c1ee09dbd06736cffcc184412cf7a71a0fdb75d397ca58360405190815260200160405180910390a25050565b600160a060020a033381166000908152600260209081526040808320938616835292905290812054808311156106d857600160a060020a03338116600090815260026020908152604080832093881683529290529081205561070f565b6106e8818463ffffffff610a8f16565b600160a060020a033381166000908152600260209081526040808320938916835292905220555b600160a060020a0333811660008181526002602090815260408083209489168084529490915290819020547f8c5be1e5ebec7d5bd14f71427d1e84f3dd0314c0f7b2291e5b200ac8c7c3b925915190815260200160405180910390a35060019392505050565b600160a060020a031660009081526001602052604090205490565b60035460009033600160a060020a039081169116146107ae57600080fd5b60035460a060020a900460ff16156107c557600080fd5b6003805474ff0000000000000000000000000000000000000000191660a060020a1790557fae5184fba832cb2b1f702aca6117b8d265eaf03ad33eb133f19dde0f5920fa0860405160405180910390a150600190565b600354600160a060020a031681565b6000600160a060020a038316151561084157600080fd5b600160a060020a03331660009081526001602052604090205482111561086657600080fd5b600160a060020a03331660009081526001602052604090205461088f908363ffffffff610a8f16565b600160a060020a0333811660009081526001602052604080822093909355908516815220546108c4908363ffffffff610aa116565b600160a060020a0380851660008181526001602052604090819020939093559133909116907fddf252ad1be2c89b69c2b068fc378daa952ba7f163c4a11628f55a4df523b3ef9085905190815260200160405180910390a350600192915050565b600160a060020a03338116600090815260026020908152604080832093861683529290529081205461095d908363ffffffff610aa116565b600160a060020a0333811660008181526002602090815260408083209489168084529490915290819020849055919290917f8c5be1e5ebec7d5bd14f71427d1e84f3dd0314c0f7b2291e5b200ac8c7c3b92591905190815260200160405180910390a350600192915050565b600160a060020a03918216600090815260026020908152604080832093909416825291909152205490565b60035433600160a060020a03908116911614610a0f57600080fd5b600160a060020a0381161515610a2457600080fd5b600354600160a060020a0380831691167f8be0079c531659141344cd1fd0a4f28419497f9722a3daafe3b4186f6b6457e060405160405180910390a36003805473ffffffffffffffffffffffffffffffffffffffff1916600160a060020a0392909216919091179055565b600082821115610a9b57fe5b50900390565b600082820183811015610ab057fe5b93925050505600a165627a7a72305820feb5bfc1a2a79258f188276a34616e033da86ab7fda3876bbe17ff106b83ecc90029a165627a7a7230582014f069ddf3965f3252abe8b84ebd9ed26c06ff6829ace25e970475ae9ffdfdc10029606060405260038054600160a860020a03191633600160a060020a0316179055610ae38061002e6000396000f3006060604052600436106100cf5763ffffffff7c010000000000000000000000000000000000000000000000000000000060003504166305d2035b81146100d4578063095ea7b3146100fb57806318160ddd1461011d57806323b872dd1461014257806340c10f191461016a57806342966c681461018c57806366188463146101a457806370a08231146101c65780637d64bcb4146101e55780638da5cb5b146101f8578063a9059cbb14610227578063d73dd62314610249578063dd62ed3e1461026b578063f2fde38b14610290575b600080fd5b34156100df57600080fd5b6100e76102af565b604051901515815260200160405180910390f35b341561010657600080fd5b6100e7600160a060020a03600435166024356102bf565b341561012857600080fd5b61013061032b565b60405190815260200160405180910390f35b341561014d57600080fd5b6100e7600160a060020a0360043581169060243516604435610331565b341561017557600080fd5b6100e7600160a060020a03600435166024356104b3565b341561019757600080fd5b6101a26004356105c0565b005b34156101af57600080fd5b6100e7600160a060020a036004351660243561067b565b34156101d157600080fd5b610130600160a060020a0360043516610775565b34156101f057600080fd5b6100e7610790565b341561020357600080fd5b61020b61081b565b604051600160a060020a03909116815260200160405180910390f35b341561023257600080fd5b6100e7600160a060020a036004351660243561082a565b341561025457600080fd5b6100e7600160a060020a0360043516602435610925565b341561027657600080fd5b610130600160a060020a03600435811690602435166109c9565b341561029b57600080fd5b6101a2600160a060020a03600435166109f4565b60035460a060020a900460ff1681565b600160a060020a03338116600081815260026020908152604080832094871680845294909152808220859055909291907f8c5be1e5ebec7d5bd14f71427d1e84f3dd0314c0f7b2291e5b200ac8c7c3b9259085905190815260200160405180910390a350600192915050565b60005481565b6000600160a060020a038316151561034857600080fd5b600160a060020a03841660009081526001602052604090205482111561036d57600080fd5b600160a060020a03808516600090815260026020908152604080832033909416835292905220548211156103a057600080fd5b600160a060020a0384166000908152600160205260409020546103c9908363ffffffff610a8f16565b600160a060020a0380861660009081526001602052604080822093909355908516815220546103fe908363ffffffff610aa116565b600160a060020a03808516600090815260016020908152604080832094909455878316825260028152838220339093168252919091522054610446908363ffffffff610a8f16565b600160a060020a03808616600081815260026020908152604080832033861684529091529081902093909355908516917fddf252ad1be2c89b69c2b068fc378daa952ba7f163c4a11628f55a4df523b3ef9085905190815260200160405180910390a35060019392505050565b60035460009033600160a060020a039081169116146104d157600080fd5b60035460a060020a900460ff16156104e857600080fd5b6000546104fb908363ffffffff610aa116565b6000908155600160a060020a038416815260016020526040902054610526908363ffffffff610aa116565b600160a060020a0384166000818152600160205260409081902092909255907f0f6798a560793a54c3bcfe86a93cde1e73087d944c0ea20544137d41213968859084905190815260200160405180910390a2600160a060020a03831660007fddf252ad1be2c89b69c2b068fc378daa952ba7f163c4a11628f55a4df523b3ef8460405190815260200160405180910390a350600192915050565b600160a060020a0333166000908152600160205260408120548211156105e557600080fd5b5033600160a060020a03811660009081526001602052604090205461060a9083610a8f565b600160a060020a03821660009081526001602052604081209190915554610637908363ffffffff610a8f16565b600055600160a060020a0381167fcc16f5dbb4873280815c1ee09dbd06736cffcc184412cf7a71a0fdb75d397ca58360405190815260200160405180910390a25050565b600160a060020a033381166000908152600260209081526040808320938616835292905290812054808311156106d857600160a060020a03338116600090815260026020908152604080832093881683529290529081205561070f565b6106e8818463ffffffff610a8f16565b600160a060020a033381166000908152600260209081526040808320938916835292905220555b600160a060020a0333811660008181526002602090815260408083209489168084529490915290819020547f8c5be1e5ebec7d5bd14f71427d1e84f3dd0314c0f7b2291e5b200ac8c7c3b925915190815260200160405180910390a35060019392505050565b600160a060020a031660009081526001602052604090205490565b60035460009033600160a060020a039081169116146107ae57600080fd5b60035460a060020a900460ff16156107c557600080fd5b6003805474ff0000000000000000000000000000000000000000191660a060020a1790557fae5184fba832cb2b1f702aca6117b8d265eaf03ad33eb133f19dde0f5920fa0860405160405180910390a150600190565b600354600160a060020a031681565b6000600160a060020a038316151561084157600080fd5b600160a060020a03331660009081526001602052604090205482111561086657600080fd5b600160a060020a03331660009081526001602052604090205461088f908363ffffffff610a8f16565b600160a060020a0333811660009081526001602052604080822093909355908516815220546108c4908363ffffffff610aa116565b600160a060020a0380851660008181526001602052604090819020939093559133909116907fddf252ad1be2c89b69c2b068fc378daa952ba7f163c4a11628f55a4df523b3ef9085905190815260200160405180910390a350600192915050565b600160a060020a03338116600090815260026020908152604080832093861683529290529081205461095d908363ffffffff610aa116565b600160a060020a0333811660008181526002602090815260408083209489168084529490915290819020849055919290917f8c5be1e5ebec7d5bd14f71427d1e84f3dd0314c0f7b2291e5b200ac8c7c3b92591905190815260200160405180910390a350600192915050565b600160a060020a03918216600090815260026020908152604080832093909416825291909152205490565b60035433600160a060020a03908116911614610a0f57600080fd5b600160a060020a0381161515610a2457600080fd5b600354600160a060020a0380831691167f8be0079c531659141344cd1fd0a4f28419497f9722a3daafe3b4186f6b6457e060405160405180910390a36003805473ffffffffffffffffffffffffffffffffffffffff1916600160a060020a0392909216919091179055565b600082821115610a9b57fe5b50900390565b600082820183811015610ab057fe5b93925050505600a165627a7a72305820feb5bfc1a2a79258f188276a34616e033da86ab7fda3876bbe17ff106b83ecc90029",
  "source": "pragma solidity ^0.4.18;\r\n\r\nimport '../token/MintableToken.sol';\r\nimport '../math/SafeMath.sol';\r\n\r\n/**\r\n * @title Crowdsale\r\n * @dev Crowdsale is a base contract for managing a token crowdsale.\r\n * Crowdsales have a start and end timestamps, where investors can make\r\n * token purchases and the crowdsale will assign them tokens based\r\n * on a token per ETH rate. Funds collected are forwarded to a wallet\r\n * as they arrive.\r\n */\r\ncontract Crowdsale {\r\n  using SafeMath for uint256;\r\n\r\n  // The token being sold\r\n  MintableToken public token;\r\n\r\n  // start and end timestamps where investments are allowed (both inclusive)\r\n  uint256 public startTime;\r\n  uint256 public endTime;\r\n\r\n  // address where funds are collected\r\n  address public wallet;\r\n\r\n  // how many token units a buyer gets per wei\r\n  uint256 public rate;\r\n\r\n  // amount of raised money in wei\r\n  uint256 public weiRaised;\r\n\r\n  /**\r\n   * event for token purchase logging\r\n   * @param purchaser who paid for the tokens\r\n   * @param beneficiary who got the tokens\r\n   * @param value weis paid for purchase\r\n   * @param amount amount of tokens purchased\r\n   */\r\n  event TokenPurchase(address indexed purchaser, address indexed beneficiary, uint256 value, uint256 amount);\r\n  event TokenRateChange(uint256 new_rate);\r\n\r\n  function Crowdsale(uint256 _startTime, uint256 _endTime, uint256 _rate, address _wallet) public {\r\n    require(_startTime >= now);\r\n    require(_endTime >= _startTime);\r\n    require(_rate > 0);\r\n    require(_wallet != address(0));\r\n\r\n    token = createTokenContract();\r\n    startTime = _startTime;\r\n    endTime = _endTime;\r\n    rate = _rate;\r\n    wallet = _wallet;\r\n  }\r\n\r\n  // creates the token to be sold.\r\n  // override this method to have crowdsale of a specific mintable token.\r\n  function createTokenContract() internal returns (MintableToken) {\r\n    return new MintableToken();\r\n  }\r\n\r\n\r\n\r\n  // fallback function can be used to buy tokens\r\n  function () external payable {\r\n    buyTokens(msg.sender);\r\n  }\r\n\r\n  // low level token purchase function\r\n  function buyTokens(address beneficiary) public payable {\r\n    require(beneficiary != address(0));\r\n    require(validPurchase());\r\n\r\n    uint256 weiAmount = msg.value;\r\n\r\n    // calculate token amount to be created\r\n    uint256 tokens = weiAmount.mul(rate);\r\n\r\n    // update state\r\n    weiRaised = weiRaised.add(weiAmount);\r\n\r\n    token.mint(beneficiary, tokens);\r\n    TokenPurchase(msg.sender, beneficiary, weiAmount, tokens);\r\n\r\n    forwardFunds();\r\n  }\r\n\r\n  // send ether to the fund collection wallet\r\n  // override to create custom fund forwarding mechanisms\r\n  function forwardFunds() internal {\r\n    wallet.transfer(msg.value);\r\n  }\r\n\r\n  // @return true if the transaction can buy tokens\r\n  function validPurchase() internal view returns (bool) {\r\n    bool withinPeriod = now >= startTime && now <= endTime;\r\n    bool nonZeroPurchase = msg.value != 0;\r\n    return withinPeriod && nonZeroPurchase;\r\n  }\r\n\r\n  // @return true if crowdsale event has ended\r\n  function hasEnded() public view returns (bool) {\r\n    return now > endTime;\r\n  }\r\n\r\n\r\n}\r\n",
  "sourcePath": "C:\\Users\\Nagaganesh Jaladanki\\OneDrive\\Documents\\Coding\\GreenSparc_Project\\ICO\\contracts\\crowdsale\\Crowdsale.sol",
  "compiler": {
    "name": "solc",
    "version": "0.4.18+commit.9cf6e910.Emscripten.clang"
  },
  "schemaVersion": "1.0.1",
  "updatedAt": "2018-01-31T22:49:12.474Z"
}