{
  "contractName": "GreensparcCrowdsale",
  "abi": [
    {
      "constant": false,
      "inputs": [
        {
          "name": "_amount",
          "type": "uint256"
        }
      ],
      "name": "sendMoneyBeforeEnd",
      "outputs": [
        {
          "name": "",
          "type": "bool"
        }
      ],
      "payable": false,
      "stateMutability": "nonpayable",
      "type": "function"
    },
    {
      "constant": true,
      "inputs": [],
      "name": "rate",
      "outputs": [
        {
          "name": "",
          "type": "uint256"
        }
      ],
      "payable": false,
      "stateMutability": "view",
      "type": "function"
    },
    {
      "constant": true,
      "inputs": [],
      "name": "endTime",
      "outputs": [
        {
          "name": "",
          "type": "uint256"
        }
      ],
      "payable": false,
      "stateMutability": "view",
      "type": "function"
    },
    {
      "constant": true,
      "inputs": [],
      "name": "cap",
      "outputs": [
        {
          "name": "",
          "type": "uint256"
        }
      ],
      "payable": false,
      "stateMutability": "view",
      "type": "function"
    },
    {
      "constant": true,
      "inputs": [],
      "name": "goal",
      "outputs": [
        {
          "name": "",
          "type": "uint256"
        }
      ],
      "payable": false,
      "stateMutability": "view",
      "type": "function"
    },
    {
      "constant": true,
      "inputs": [],
      "name": "weiRaised",
      "outputs": [
        {
          "name": "",
          "type": "uint256"
        }
      ],
      "payable": false,
      "stateMutability": "view",
      "type": "function"
    },
    {
      "constant": false,
      "inputs": [],
      "name": "finalize",
      "outputs": [],
      "payable": false,
      "stateMutability": "nonpayable",
      "type": "function"
    },
    {
      "constant": true,
      "inputs": [],
      "name": "wallet",
      "outputs": [
        {
          "name": "",
          "type": "address"
        }
      ],
      "payable": false,
      "stateMutability": "view",
      "type": "function"
    },
    {
      "constant": true,
      "inputs": [],
      "name": "startTime",
      "outputs": [
        {
          "name": "",
          "type": "uint256"
        }
      ],
      "payable": false,
      "stateMutability": "view",
      "type": "function"
    },
    {
      "constant": true,
      "inputs": [],
      "name": "goalReached",
      "outputs": [
        {
          "name": "",
          "type": "bool"
        }
      ],
      "payable": false,
      "stateMutability": "view",
      "type": "function"
    },
    {
      "constant": true,
      "inputs": [],
      "name": "isFinalized",
      "outputs": [
        {
          "name": "",
          "type": "bool"
        }
      ],
      "payable": false,
      "stateMutability": "view",
      "type": "function"
    },
    {
      "constant": true,
      "inputs": [],
      "name": "owner",
      "outputs": [
        {
          "name": "",
          "type": "address"
        }
      ],
      "payable": false,
      "stateMutability": "view",
      "type": "function"
    },
    {
      "constant": false,
      "inputs": [
        {
          "name": "_newRate",
          "type": "uint256"
        }
      ],
      "name": "rateChange",
      "outputs": [],
      "payable": false,
      "stateMutability": "nonpayable",
      "type": "function"
    },
    {
      "constant": false,
      "inputs": [],
      "name": "claimRefund",
      "outputs": [],
      "payable": false,
      "stateMutability": "nonpayable",
      "type": "function"
    },
    {
      "constant": false,
      "inputs": [
        {
          "name": "beneficiary",
          "type": "address"
        }
      ],
      "name": "buyTokens",
      "outputs": [],
      "payable": true,
      "stateMutability": "payable",
      "type": "function"
    },
    {
      "constant": true,
      "inputs": [],
      "name": "hasEnded",
      "outputs": [
        {
          "name": "",
          "type": "bool"
        }
      ],
      "payable": false,
      "stateMutability": "view",
      "type": "function"
    },
    {
      "constant": false,
      "inputs": [
        {
          "name": "newOwner",
          "type": "address"
        }
      ],
      "name": "transferOwnership",
      "outputs": [],
      "payable": false,
      "stateMutability": "nonpayable",
      "type": "function"
    },
    {
      "constant": true,
      "inputs": [],
      "name": "vault",
      "outputs": [
        {
          "name": "",
          "type": "address"
        }
      ],
      "payable": false,
      "stateMutability": "view",
      "type": "function"
    },
    {
      "constant": true,
      "inputs": [],
      "name": "token",
      "outputs": [
        {
          "name": "",
          "type": "address"
        }
      ],
      "payable": false,
      "stateMutability": "view",
      "type": "function"
    },
    {
      "inputs": [
        {
          "name": "_startTime",
          "type": "uint256"
        },
        {
          "name": "_endTime",
          "type": "uint256"
        },
        {
          "name": "_rate",
          "type": "uint256"
        },
        {
          "name": "_goal",
          "type": "uint256"
        },
        {
          "name": "_cap",
          "type": "uint256"
        },
        {
          "name": "_wallet",
          "type": "address"
        }
      ],
      "payable": false,
      "stateMutability": "nonpayable",
      "type": "constructor"
    },
    {
      "payable": true,
      "stateMutability": "payable",
      "type": "fallback"
    },
    {
      "anonymous": false,
      "inputs": [],
      "name": "Finalized",
      "type": "event"
    },
    {
      "anonymous": false,
      "inputs": [
        {
          "indexed": true,
          "name": "previousOwner",
          "type": "address"
        },
        {
          "indexed": true,
          "name": "newOwner",
          "type": "address"
        }
      ],
      "name": "OwnershipTransferred",
      "type": "event"
    },
    {
      "anonymous": false,
      "inputs": [
        {
          "indexed": true,
          "name": "purchaser",
          "type": "address"
        },
        {
          "indexed": true,
          "name": "beneficiary",
          "type": "address"
        },
        {
          "indexed": false,
          "name": "value",
          "type": "uint256"
        },
        {
          "indexed": false,
          "name": "amount",
          "type": "uint256"
        }
      ],
      "name": "TokenPurchase",
      "type": "event"
    },
    {
      "anonymous": false,
      "inputs": [
        {
          "indexed": false,
          "name": "new_rate",
          "type": "uint256"
        }
      ],
      "name": "TokenRateChange",
      "type": "event"
    }
  ],
  "bytecode": "0x60606040526007805460a060020a60ff0219169055341561001f57600080fd5b60405160c080612a72833981016040528080519190602001805191906020018051919060200180519190602001805191906020018051915083905082878787854284101561006c57600080fd5b8383101561007957600080fd5b6000821161008657600080fd5b600160a060020a038116151561009b57600080fd5b6100b06401000000006108bb61019882021704565b60008054600160a060020a0319908116600160a060020a039384161782556001969096556002949094556004929092556003805490941691161790915581116100f857600080fd5b60065560078054600160a060020a03191633600160a060020a03161790556000811161012357600080fd5b600354600160a060020a03166101376101bd565b600160a060020a039091168152602001604051809103906000f080151561015d57600080fd5b60098054600160a060020a031916600160a060020a03929092169190911790556008558183111561018d57600080fd5b5050505050506101dd565b60006101a26101cd565b604051809103906000f08015156101b857600080fd5b905090565b6040516106948061177383390190565b604051610c6b80611e0783390190565b611587806101ec6000396000f3006060604052600436106100ed5763ffffffff60e060020a600035041663027391bf81146100f85780632c4e722e146101225780633197cbb614610147578063355274ea1461015a578063401938831461016d5780634042b66f146101805780634bb278f314610193578063521eb273146101a657806378e97925146101d55780637d3d6522146101e85780638d4e4083146101fb5780638da5cb5b1461020e57806398e6e79114610221578063b5545a3c14610237578063ec8ac4d81461024a578063ecb70fb71461025e578063f2fde38b14610271578063fbfa77cf14610290578063fc0c546a146102a3575b6100f6336102b6565b005b341561010357600080fd5b61010e6004356103ea565b604051901515815260200160405180910390f35b341561012d57600080fd5b610135610463565b60405190815260200160405180910390f35b341561015257600080fd5b610135610469565b341561016557600080fd5b61013561046f565b341561017857600080fd5b610135610475565b341561018b57600080fd5b61013561047b565b341561019e57600080fd5b6100f6610481565b34156101b157600080fd5b6101b9610520565b604051600160a060020a03909116815260200160405180910390f35b34156101e057600080fd5b61013561052f565b34156101f357600080fd5b61010e610535565b341561020657600080fd5b61010e610540565b341561021957600080fd5b6101b9610550565b341561022c57600080fd5b6100f660043561055f565b341561024257600080fd5b6100f661057f565b6100f6600160a060020a03600435166102b6565b341561026957600080fd5b61010e61060a565b341561027c57600080fd5b6100f6600160a060020a036004351661062c565b341561029b57600080fd5b6101b96106c7565b34156102ae57600080fd5b6101b96106d6565b600080600160a060020a03831615156102ce57600080fd5b6102d66106e5565b15156102e157600080fd5b6004543492506102f890839063ffffffff61071816565b60055490915061030e908363ffffffff61074e16565b60055560008054600160a060020a0316906340c10f1990859084906040516020015260405160e060020a63ffffffff8516028152600160a060020a0390921660048301526024820152604401602060405180830381600087803b151561037357600080fd5b6102c65a03f1151561038457600080fd5b505050604051805190505082600160a060020a031633600160a060020a03167f623b3804fa71d67900d064613da8f94b9617215ee90799290593e1745087ad18848460405191825260208201526040908101905180910390a36103e561075d565b505050565b60006103f4610535565b151560011461040257600080fd5b600954600160a060020a031663350d9b968360405160e060020a63ffffffff84160281526004810191909152602401600060405180830381600087803b151561044a57600080fd5b6102c65a03f1151561045b57600080fd5b505050919050565b60045481565b60025481565b60065481565b60085481565b60055481565b60075433600160a060020a0390811691161461049c57600080fd5b60075460a060020a900460ff16156104b357600080fd5b6104bb61060a565b15156104c657600080fd5b6104ce6107c4565b7f6823b073d48d6e3a7d385eeb601452d680e74bb46afe3255a7d778f3a9b1768160405160405180910390a16007805474ff0000000000000000000000000000000000000000191660a060020a179055565b600354600160a060020a031681565b60015481565b600854600554101590565b60075460a060020a900460ff1681565b600754600160a060020a031681565b60075433600160a060020a0390811691161461057a57600080fd5b600455565b60075460a060020a900460ff16151561059757600080fd5b61059f610535565b156105a957600080fd5b600954600160a060020a031663fa89401a3360405160e060020a63ffffffff8416028152600160a060020a039091166004820152602401600060405180830381600087803b15156105f957600080fd5b6102c65a03f115156103e557600080fd5b60065460055460009190101561061e610883565b806106265750805b91505090565b60075433600160a060020a0390811691161461064757600080fd5b600160a060020a038116151561065c57600080fd5b600754600160a060020a0380831691167f8be0079c531659141344cd1fd0a4f28419497f9722a3daafe3b4186f6b6457e060405160405180910390a36007805473ffffffffffffffffffffffffffffffffffffffff1916600160a060020a0392909216919091179055565b600954600160a060020a031681565b600054600160a060020a031681565b6000806006546107003460055461074e90919063ffffffff16565b1115905061070c61088b565b80156106265750919050565b60008083151561072b5760009150610747565b5082820282848281151561073b57fe5b041461074357fe5b8091505b5092915050565b60008282018381101561074357fe5b600954600160a060020a031663f340fa01343360405160e060020a63ffffffff8516028152600160a060020a0390911660048201526024016000604051808303818588803b15156107ad57600080fd5b6125ee5a03f115156107be57600080fd5b50505050565b6107cc610535565b1561082957600954600160a060020a03166343d726d66040518163ffffffff1660e060020a028152600401600060405180830381600087803b151561081057600080fd5b6102c65a03f1151561082157600080fd5b50505061087d565b600954600160a060020a0316638c52dc416040518163ffffffff1660e060020a028152600401600060405180830381600087803b151561086857600080fd5b6102c65a03f1151561087957600080fd5b5050505b6108815b565b600254421190565b600080600060015442101580156108a457506002544211155b9150503415158180156108b45750805b9250505090565b60006108c56108e0565b604051809103906000f08015156108db57600080fd5b905090565b604051610c6b806108f1833901905600606060405260038054600160a860020a03191633600160a060020a0316179055610c3d8061002e6000396000f3006060604052600436106100f05763ffffffff7c010000000000000000000000000000000000000000000000000000000060003504166305d2035b81146100f557806306fdde031461011c578063095ea7b3146101a657806318160ddd146101c857806323b872dd146101ed578063313ce5671461021557806340c10f191461023e57806342966c6814610260578063661884631461027857806370a082311461029a5780637d64bcb4146102b95780638da5cb5b146102cc57806395d89b41146102fb578063a9059cbb1461030e578063d73dd62314610330578063dd62ed3e14610352578063f2fde38b14610377575b600080fd5b341561010057600080fd5b610108610396565b604051901515815260200160405180910390f35b341561012757600080fd5b61012f6103a6565b60405160208082528190810183818151815260200191508051906020019080838360005b8381101561016b578082015183820152602001610153565b50505050905090810190601f1680156101985780820380516001836020036101000a031916815260200191505b509250505060405180910390f35b34156101b157600080fd5b610108600160a060020a03600435166024356103dd565b34156101d357600080fd5b6101db610449565b60405190815260200160405180910390f35b34156101f857600080fd5b610108600160a060020a036004358116906024351660443561044f565b341561022057600080fd5b6102286105d1565b60405160ff909116815260200160405180910390f35b341561024957600080fd5b610108600160a060020a03600435166024356105d6565b341561026b57600080fd5b6102766004356106e3565b005b341561028357600080fd5b610108600160a060020a036004351660243561079e565b34156102a557600080fd5b6101db600160a060020a0360043516610898565b34156102c457600080fd5b6101086108b3565b34156102d757600080fd5b6102df61093e565b604051600160a060020a03909116815260200160405180910390f35b341561030657600080fd5b61012f61094d565b341561031957600080fd5b610108600160a060020a0360043516602435610984565b341561033b57600080fd5b610108600160a060020a0360043516602435610a7f565b341561035d57600080fd5b6101db600160a060020a0360043581169060243516610b23565b341561038257600080fd5b610276600160a060020a0360043516610b4e565b60035460a060020a900460ff1681565b60408051908101604052600b81527f43697272757320436f696e000000000000000000000000000000000000000000602082015281565b600160a060020a03338116600081815260026020908152604080832094871680845294909152808220859055909291907f8c5be1e5ebec7d5bd14f71427d1e84f3dd0314c0f7b2291e5b200ac8c7c3b9259085905190815260200160405180910390a350600192915050565b60005481565b6000600160a060020a038316151561046657600080fd5b600160a060020a03841660009081526001602052604090205482111561048b57600080fd5b600160a060020a03808516600090815260026020908152604080832033909416835292905220548211156104be57600080fd5b600160a060020a0384166000908152600160205260409020546104e7908363ffffffff610be916565b600160a060020a03808616600090815260016020526040808220939093559085168152205461051c908363ffffffff610bfb16565b600160a060020a03808516600090815260016020908152604080832094909455878316825260028152838220339093168252919091522054610564908363ffffffff610be916565b600160a060020a03808616600081815260026020908152604080832033861684529091529081902093909355908516917fddf252ad1be2c89b69c2b068fc378daa952ba7f163c4a11628f55a4df523b3ef9085905190815260200160405180910390a35060019392505050565b601281565b60035460009033600160a060020a039081169116146105f457600080fd5b60035460a060020a900460ff161561060b57600080fd5b60005461061e908363ffffffff610bfb16565b6000908155600160a060020a038416815260016020526040902054610649908363ffffffff610bfb16565b600160a060020a0384166000818152600160205260409081902092909255907f0f6798a560793a54c3bcfe86a93cde1e73087d944c0ea20544137d41213968859084905190815260200160405180910390a2600160a060020a03831660007fddf252ad1be2c89b69c2b068fc378daa952ba7f163c4a11628f55a4df523b3ef8460405190815260200160405180910390a350600192915050565b600160a060020a03331660009081526001602052604081205482111561070857600080fd5b5033600160a060020a03811660009081526001602052604090205461072d9083610be9565b600160a060020a0382166000908152600160205260408120919091555461075a908363ffffffff610be916565b600055600160a060020a0381167fcc16f5dbb4873280815c1ee09dbd06736cffcc184412cf7a71a0fdb75d397ca58360405190815260200160405180910390a25050565b600160a060020a033381166000908152600260209081526040808320938616835292905290812054808311156107fb57600160a060020a033381166000908152600260209081526040808320938816835292905290812055610832565b61080b818463ffffffff610be916565b600160a060020a033381166000908152600260209081526040808320938916835292905220555b600160a060020a0333811660008181526002602090815260408083209489168084529490915290819020547f8c5be1e5ebec7d5bd14f71427d1e84f3dd0314c0f7b2291e5b200ac8c7c3b925915190815260200160405180910390a35060019392505050565b600160a060020a031660009081526001602052604090205490565b60035460009033600160a060020a039081169116146108d157600080fd5b60035460a060020a900460ff16156108e857600080fd5b6003805474ff0000000000000000000000000000000000000000191660a060020a1790557fae5184fba832cb2b1f702aca6117b8d265eaf03ad33eb133f19dde0f5920fa0860405160405180910390a150600190565b600354600160a060020a031681565b60408051908101604052600381527f4352430000000000000000000000000000000000000000000000000000000000602082015281565b6000600160a060020a038316151561099b57600080fd5b600160a060020a0333166000908152600160205260409020548211156109c057600080fd5b600160a060020a0333166000908152600160205260409020546109e9908363ffffffff610be916565b600160a060020a033381166000908152600160205260408082209390935590851681522054610a1e908363ffffffff610bfb16565b600160a060020a0380851660008181526001602052604090819020939093559133909116907fddf252ad1be2c89b69c2b068fc378daa952ba7f163c4a11628f55a4df523b3ef9085905190815260200160405180910390a350600192915050565b600160a060020a033381166000908152600260209081526040808320938616835292905290812054610ab7908363ffffffff610bfb16565b600160a060020a0333811660008181526002602090815260408083209489168084529490915290819020849055919290917f8c5be1e5ebec7d5bd14f71427d1e84f3dd0314c0f7b2291e5b200ac8c7c3b92591905190815260200160405180910390a350600192915050565b600160a060020a03918216600090815260026020908152604080832093909416825291909152205490565b60035433600160a060020a03908116911614610b6957600080fd5b600160a060020a0381161515610b7e57600080fd5b600354600160a060020a0380831691167f8be0079c531659141344cd1fd0a4f28419497f9722a3daafe3b4186f6b6457e060405160405180910390a36003805473ffffffffffffffffffffffffffffffffffffffff1916600160a060020a0392909216919091179055565b600082821115610bf557fe5b50900390565b600082820183811015610c0a57fe5b93925050505600a165627a7a723058202fca6fa03ae37e25962f0210469b2516535f08bd32251b129504c1483946af080029a165627a7a723058204e13ac6911d723453cc12d7d39ccd507cca91401aa50a12e6e589b690bb865e700296060604052341561000f57600080fd5b6040516020806106948339810160405280805160008054600160a060020a03191633600160a060020a039081169190911790915590925082161515905061005557600080fd5b60028054600160a060020a031916600160a060020a03929092169190911760a060020a60ff02191690556106068061008e6000396000f3006060604052600436106100a35763ffffffff7c0100000000000000000000000000000000000000000000000000000000600035041663350d9b9681146100a857806343d726d6146100c0578063521eb273146100d35780638c52dc41146101025780638da5cb5b14610115578063c19d93fb14610128578063cb13cddb1461015f578063f2fde38b14610190578063f340fa01146101af578063fa89401a146101c3575b600080fd5b34156100b357600080fd5b6100be6004356101e2565b005b34156100cb57600080fd5b6100be610249565b34156100de57600080fd5b6100e6610324565b604051600160a060020a03909116815260200160405180910390f35b341561010d57600080fd5b6100be610333565b341561012057600080fd5b6100e66103c4565b341561013357600080fd5b61013b6103d3565b6040518082600281111561014b57fe5b60ff16815260200191505060405180910390f35b341561016a57600080fd5b61017e600160a060020a03600435166103e3565b60405190815260200160405180910390f35b341561019b57600080fd5b6100be600160a060020a03600435166103f5565b6100be600160a060020a0360043516610490565b34156101ce57600080fd5b6100be600160a060020a0360043516610514565b60005433600160a060020a039081169116146101fd57600080fd5b600160a060020a03301631811061021357600080fd5b600254600160a060020a031681156108fc0282604051600060405180830381858888f19350505050151561024657600080fd5b50565b60005433600160a060020a0390811691161461026457600080fd5b60006002805460a060020a900460ff169081111561027e57fe5b1461028857600080fd5b6002805474ff00000000000000000000000000000000000000001916740200000000000000000000000000000000000000001790557f1cdde67b72a90f19919ac732a437ac2f7a10fc128d28c2a6e525d89ce5cd9d3a60405160405180910390a1600254600160a060020a039081169030163180156108fc0290604051600060405180830381858888f19350505050151561032257600080fd5b565b600254600160a060020a031681565b60005433600160a060020a0390811691161461034e57600080fd5b60006002805460a060020a900460ff169081111561036857fe5b1461037257600080fd5b6002805474ff0000000000000000000000000000000000000000191660a060020a1790557f599d8e5a83cffb867d051598c4d70e805d59802d8081c1c7d6dffc5b6aca2b8960405160405180910390a1565b600054600160a060020a031681565b60025460a060020a900460ff1681565b60016020526000908152604090205481565b60005433600160a060020a0390811691161461041057600080fd5b600160a060020a038116151561042557600080fd5b600054600160a060020a0380831691167f8be0079c531659141344cd1fd0a4f28419497f9722a3daafe3b4186f6b6457e060405160405180910390a36000805473ffffffffffffffffffffffffffffffffffffffff1916600160a060020a0392909216919091179055565b60005433600160a060020a039081169116146104ab57600080fd5b60006002805460a060020a900460ff16908111156104c557fe5b146104cf57600080fd5b600160a060020a0381166000908152600160205260409020546104f8903463ffffffff6105c416565b600160a060020a03909116600090815260016020526040902055565b600060016002805460a060020a900460ff169081111561053057fe5b1461053a57600080fd5b50600160a060020a038116600081815260016020526040808220805492905590919082156108fc0290839051600060405180830381858888f19350505050151561058357600080fd5b81600160a060020a03167fd7dee2702d63ad89917b6a4da9981c90c4d24f8c2bdfd64c604ecae57d8d06518260405190815260200160405180910390a25050565b6000828201838110156105d357fe5b93925050505600a165627a7a72305820b4ac7925cd0a318ddb691c98d12c865dec23c0f726188b889af7d2fae153de170029606060405260038054600160a860020a03191633600160a060020a0316179055610c3d8061002e6000396000f3006060604052600436106100f05763ffffffff7c010000000000000000000000000000000000000000000000000000000060003504166305d2035b81146100f557806306fdde031461011c578063095ea7b3146101a657806318160ddd146101c857806323b872dd146101ed578063313ce5671461021557806340c10f191461023e57806342966c6814610260578063661884631461027857806370a082311461029a5780637d64bcb4146102b95780638da5cb5b146102cc57806395d89b41146102fb578063a9059cbb1461030e578063d73dd62314610330578063dd62ed3e14610352578063f2fde38b14610377575b600080fd5b341561010057600080fd5b610108610396565b604051901515815260200160405180910390f35b341561012757600080fd5b61012f6103a6565b60405160208082528190810183818151815260200191508051906020019080838360005b8381101561016b578082015183820152602001610153565b50505050905090810190601f1680156101985780820380516001836020036101000a031916815260200191505b509250505060405180910390f35b34156101b157600080fd5b610108600160a060020a03600435166024356103dd565b34156101d357600080fd5b6101db610449565b60405190815260200160405180910390f35b34156101f857600080fd5b610108600160a060020a036004358116906024351660443561044f565b341561022057600080fd5b6102286105d1565b60405160ff909116815260200160405180910390f35b341561024957600080fd5b610108600160a060020a03600435166024356105d6565b341561026b57600080fd5b6102766004356106e3565b005b341561028357600080fd5b610108600160a060020a036004351660243561079e565b34156102a557600080fd5b6101db600160a060020a0360043516610898565b34156102c457600080fd5b6101086108b3565b34156102d757600080fd5b6102df61093e565b604051600160a060020a03909116815260200160405180910390f35b341561030657600080fd5b61012f61094d565b341561031957600080fd5b610108600160a060020a0360043516602435610984565b341561033b57600080fd5b610108600160a060020a0360043516602435610a7f565b341561035d57600080fd5b6101db600160a060020a0360043581169060243516610b23565b341561038257600080fd5b610276600160a060020a0360043516610b4e565b60035460a060020a900460ff1681565b60408051908101604052600b81527f43697272757320436f696e000000000000000000000000000000000000000000602082015281565b600160a060020a03338116600081815260026020908152604080832094871680845294909152808220859055909291907f8c5be1e5ebec7d5bd14f71427d1e84f3dd0314c0f7b2291e5b200ac8c7c3b9259085905190815260200160405180910390a350600192915050565b60005481565b6000600160a060020a038316151561046657600080fd5b600160a060020a03841660009081526001602052604090205482111561048b57600080fd5b600160a060020a03808516600090815260026020908152604080832033909416835292905220548211156104be57600080fd5b600160a060020a0384166000908152600160205260409020546104e7908363ffffffff610be916565b600160a060020a03808616600090815260016020526040808220939093559085168152205461051c908363ffffffff610bfb16565b600160a060020a03808516600090815260016020908152604080832094909455878316825260028152838220339093168252919091522054610564908363ffffffff610be916565b600160a060020a03808616600081815260026020908152604080832033861684529091529081902093909355908516917fddf252ad1be2c89b69c2b068fc378daa952ba7f163c4a11628f55a4df523b3ef9085905190815260200160405180910390a35060019392505050565b601281565b60035460009033600160a060020a039081169116146105f457600080fd5b60035460a060020a900460ff161561060b57600080fd5b60005461061e908363ffffffff610bfb16565b6000908155600160a060020a038416815260016020526040902054610649908363ffffffff610bfb16565b600160a060020a0384166000818152600160205260409081902092909255907f0f6798a560793a54c3bcfe86a93cde1e73087d944c0ea20544137d41213968859084905190815260200160405180910390a2600160a060020a03831660007fddf252ad1be2c89b69c2b068fc378daa952ba7f163c4a11628f55a4df523b3ef8460405190815260200160405180910390a350600192915050565b600160a060020a03331660009081526001602052604081205482111561070857600080fd5b5033600160a060020a03811660009081526001602052604090205461072d9083610be9565b600160a060020a0382166000908152600160205260408120919091555461075a908363ffffffff610be916565b600055600160a060020a0381167fcc16f5dbb4873280815c1ee09dbd06736cffcc184412cf7a71a0fdb75d397ca58360405190815260200160405180910390a25050565b600160a060020a033381166000908152600260209081526040808320938616835292905290812054808311156107fb57600160a060020a033381166000908152600260209081526040808320938816835292905290812055610832565b61080b818463ffffffff610be916565b600160a060020a033381166000908152600260209081526040808320938916835292905220555b600160a060020a0333811660008181526002602090815260408083209489168084529490915290819020547f8c5be1e5ebec7d5bd14f71427d1e84f3dd0314c0f7b2291e5b200ac8c7c3b925915190815260200160405180910390a35060019392505050565b600160a060020a031660009081526001602052604090205490565b60035460009033600160a060020a039081169116146108d157600080fd5b60035460a060020a900460ff16156108e857600080fd5b6003805474ff0000000000000000000000000000000000000000191660a060020a1790557fae5184fba832cb2b1f702aca6117b8d265eaf03ad33eb133f19dde0f5920fa0860405160405180910390a150600190565b600354600160a060020a031681565b60408051908101604052600381527f4352430000000000000000000000000000000000000000000000000000000000602082015281565b6000600160a060020a038316151561099b57600080fd5b600160a060020a0333166000908152600160205260409020548211156109c057600080fd5b600160a060020a0333166000908152600160205260409020546109e9908363ffffffff610be916565b600160a060020a033381166000908152600160205260408082209390935590851681522054610a1e908363ffffffff610bfb16565b600160a060020a0380851660008181526001602052604090819020939093559133909116907fddf252ad1be2c89b69c2b068fc378daa952ba7f163c4a11628f55a4df523b3ef9085905190815260200160405180910390a350600192915050565b600160a060020a033381166000908152600260209081526040808320938616835292905290812054610ab7908363ffffffff610bfb16565b600160a060020a0333811660008181526002602090815260408083209489168084529490915290819020849055919290917f8c5be1e5ebec7d5bd14f71427d1e84f3dd0314c0f7b2291e5b200ac8c7c3b92591905190815260200160405180910390a350600192915050565b600160a060020a03918216600090815260026020908152604080832093909416825291909152205490565b60035433600160a060020a03908116911614610b6957600080fd5b600160a060020a0381161515610b7e57600080fd5b600354600160a060020a0380831691167f8be0079c531659141344cd1fd0a4f28419497f9722a3daafe3b4186f6b6457e060405160405180910390a36003805473ffffffffffffffffffffffffffffffffffffffff1916600160a060020a0392909216919091179055565b600082821115610bf557fe5b50900390565b600082820183811015610c0a57fe5b93925050505600a165627a7a723058202fca6fa03ae37e25962f0210469b2516535f08bd32251b129504c1483946af080029",
  "source": "pragma solidity ^0.4.18;\r\n\r\nimport \"../crowdsale/CappedCrowdsale.sol\";\r\nimport \"../crowdsale/RefundableCrowdsale.sol\";\r\nimport \"../token/MintableToken.sol\";\r\nimport '../ownership/Ownable.sol';\r\n\r\n\r\n/**\r\n * @title SampleCrowdsaleToken\r\n * @dev ERC20 Token that can be minted and burned.\r\n */\r\ncontract CirrusCoinToken is MintableToken {\r\n\r\n  string public constant name = \"Cirrus Coin\";\r\n  string public constant symbol = \"CRC\";\r\n  uint8 public constant decimals = 18;\r\n\r\n}\r\n\r\n/**\r\n * @title GreensparcCrowdsale\r\n * @dev Full-fledged crowdsale.\r\n */\r\ncontract GreensparcCrowdsale is CappedCrowdsale, RefundableCrowdsale {\r\n\r\n  function GreensparcCrowdsale(uint256 _startTime, uint256 _endTime, uint256 _rate, uint256 _goal, uint256 _cap, address _wallet) public\r\n    CappedCrowdsale(_cap)\r\n    FinalizableCrowdsale()\r\n    RefundableCrowdsale(_goal)\r\n    Crowdsale(_startTime, _endTime, _rate, _wallet)\r\n  {\r\n    //As goal needs to be met for a successful crowdsale\r\n    //the value needs to less or equal than a cap which is limit for accepted funds\r\n    require(_goal <= _cap);\r\n  }\r\n\r\n  function createTokenContract() internal returns (MintableToken) {\r\n    return new CirrusCoinToken();\r\n  }\r\n\r\n  function rateChange(uint256 _newRate) public onlyOwner {\r\n    rate = _newRate;\r\n  }\r\n  \r\n}\r\n",
  "sourcePath": "C:\\Users\\Nagaganesh Jaladanki\\OneDrive\\Documents\\Coding\\GreenSparc_Project\\ICO\\contracts\\ico\\GreensparcCrowdsale.sol",
  "compiler": {
    "name": "solc",
    "version": "0.4.18+commit.9cf6e910.Emscripten.clang"
  },
  "schemaVersion": "1.0.1",
  "updatedAt": "2018-01-31T23:07:15.410Z"
}