{
  "contractName": "RefundVault",
  "abi": [
    {
      "constant": false,
      "inputs": [
        {
          "name": "_value",
          "type": "uint256"
        }
      ],
      "name": "walletWithdraw",
      "outputs": [],
      "payable": false,
      "stateMutability": "nonpayable",
      "type": "function"
    },
    {
      "constant": false,
      "inputs": [],
      "name": "close",
      "outputs": [],
      "payable": false,
      "stateMutability": "nonpayable",
      "type": "function"
    },
    {
      "constant": true,
      "inputs": [],
      "name": "wallet",
      "outputs": [
        {
          "name": "",
          "type": "address"
        }
      ],
      "payable": false,
      "stateMutability": "view",
      "type": "function"
    },
    {
      "constant": false,
      "inputs": [],
      "name": "enableRefunds",
      "outputs": [],
      "payable": false,
      "stateMutability": "nonpayable",
      "type": "function"
    },
    {
      "constant": true,
      "inputs": [],
      "name": "owner",
      "outputs": [
        {
          "name": "",
          "type": "address"
        }
      ],
      "payable": false,
      "stateMutability": "view",
      "type": "function"
    },
    {
      "constant": true,
      "inputs": [],
      "name": "state",
      "outputs": [
        {
          "name": "",
          "type": "uint8"
        }
      ],
      "payable": false,
      "stateMutability": "view",
      "type": "function"
    },
    {
      "constant": true,
      "inputs": [
        {
          "name": "",
          "type": "address"
        }
      ],
      "name": "deposited",
      "outputs": [
        {
          "name": "",
          "type": "uint256"
        }
      ],
      "payable": false,
      "stateMutability": "view",
      "type": "function"
    },
    {
      "constant": false,
      "inputs": [
        {
          "name": "newOwner",
          "type": "address"
        }
      ],
      "name": "transferOwnership",
      "outputs": [],
      "payable": false,
      "stateMutability": "nonpayable",
      "type": "function"
    },
    {
      "constant": false,
      "inputs": [
        {
          "name": "investor",
          "type": "address"
        }
      ],
      "name": "deposit",
      "outputs": [],
      "payable": true,
      "stateMutability": "payable",
      "type": "function"
    },
    {
      "constant": false,
      "inputs": [
        {
          "name": "investor",
          "type": "address"
        }
      ],
      "name": "refund",
      "outputs": [],
      "payable": false,
      "stateMutability": "nonpayable",
      "type": "function"
    },
    {
      "inputs": [
        {
          "name": "_wallet",
          "type": "address"
        }
      ],
      "payable": false,
      "stateMutability": "nonpayable",
      "type": "constructor"
    },
    {
      "anonymous": false,
      "inputs": [],
      "name": "Closed",
      "type": "event"
    },
    {
      "anonymous": false,
      "inputs": [],
      "name": "RefundsEnabled",
      "type": "event"
    },
    {
      "anonymous": false,
      "inputs": [
        {
          "indexed": true,
          "name": "beneficiary",
          "type": "address"
        },
        {
          "indexed": false,
          "name": "weiAmount",
          "type": "uint256"
        }
      ],
      "name": "Refunded",
      "type": "event"
    },
    {
      "anonymous": false,
      "inputs": [
        {
          "indexed": true,
          "name": "previousOwner",
          "type": "address"
        },
        {
          "indexed": true,
          "name": "newOwner",
          "type": "address"
        }
      ],
      "name": "OwnershipTransferred",
      "type": "event"
    }
  ],
  "bytecode": "0x6060604052341561000f57600080fd5b6040516020806106948339810160405280805160008054600160a060020a03191633600160a060020a039081169190911790915590925082161515905061005557600080fd5b60028054600160a060020a031916600160a060020a03929092169190911760a060020a60ff02191690556106068061008e6000396000f3006060604052600436106100a35763ffffffff7c0100000000000000000000000000000000000000000000000000000000600035041663350d9b9681146100a857806343d726d6146100c0578063521eb273146100d35780638c52dc41146101025780638da5cb5b14610115578063c19d93fb14610128578063cb13cddb1461015f578063f2fde38b14610190578063f340fa01146101af578063fa89401a146101c3575b600080fd5b34156100b357600080fd5b6100be6004356101e2565b005b34156100cb57600080fd5b6100be610249565b34156100de57600080fd5b6100e6610324565b604051600160a060020a03909116815260200160405180910390f35b341561010d57600080fd5b6100be610333565b341561012057600080fd5b6100e66103c4565b341561013357600080fd5b61013b6103d3565b6040518082600281111561014b57fe5b60ff16815260200191505060405180910390f35b341561016a57600080fd5b61017e600160a060020a03600435166103e3565b60405190815260200160405180910390f35b341561019b57600080fd5b6100be600160a060020a03600435166103f5565b6100be600160a060020a0360043516610490565b34156101ce57600080fd5b6100be600160a060020a0360043516610514565b60005433600160a060020a039081169116146101fd57600080fd5b600160a060020a03301631811061021357600080fd5b600254600160a060020a031681156108fc0282604051600060405180830381858888f19350505050151561024657600080fd5b50565b60005433600160a060020a0390811691161461026457600080fd5b60006002805460a060020a900460ff169081111561027e57fe5b1461028857600080fd5b6002805474ff00000000000000000000000000000000000000001916740200000000000000000000000000000000000000001790557f1cdde67b72a90f19919ac732a437ac2f7a10fc128d28c2a6e525d89ce5cd9d3a60405160405180910390a1600254600160a060020a039081169030163180156108fc0290604051600060405180830381858888f19350505050151561032257600080fd5b565b600254600160a060020a031681565b60005433600160a060020a0390811691161461034e57600080fd5b60006002805460a060020a900460ff169081111561036857fe5b1461037257600080fd5b6002805474ff0000000000000000000000000000000000000000191660a060020a1790557f599d8e5a83cffb867d051598c4d70e805d59802d8081c1c7d6dffc5b6aca2b8960405160405180910390a1565b600054600160a060020a031681565b60025460a060020a900460ff1681565b60016020526000908152604090205481565b60005433600160a060020a0390811691161461041057600080fd5b600160a060020a038116151561042557600080fd5b600054600160a060020a0380831691167f8be0079c531659141344cd1fd0a4f28419497f9722a3daafe3b4186f6b6457e060405160405180910390a36000805473ffffffffffffffffffffffffffffffffffffffff1916600160a060020a0392909216919091179055565b60005433600160a060020a039081169116146104ab57600080fd5b60006002805460a060020a900460ff16908111156104c557fe5b146104cf57600080fd5b600160a060020a0381166000908152600160205260409020546104f8903463ffffffff6105c416565b600160a060020a03909116600090815260016020526040902055565b600060016002805460a060020a900460ff169081111561053057fe5b1461053a57600080fd5b50600160a060020a038116600081815260016020526040808220805492905590919082156108fc0290839051600060405180830381858888f19350505050151561058357600080fd5b81600160a060020a03167fd7dee2702d63ad89917b6a4da9981c90c4d24f8c2bdfd64c604ecae57d8d06518260405190815260200160405180910390a25050565b6000828201838110156105d357fe5b93925050505600a165627a7a72305820b4ac7925cd0a318ddb691c98d12c865dec23c0f726188b889af7d2fae153de170029",
  "source": "pragma solidity ^0.4.18;\r\n\r\nimport '../math/SafeMath.sol';\r\nimport '../ownership/Ownable.sol';\r\n\r\n/**\r\n * @title RefundVault\r\n * @dev This contract is used for storing funds while a crowdsale\r\n * is in progress. Supports refunding the money if crowdsale fails,\r\n * and forwarding it if crowdsale is successful.\r\n */\r\ncontract RefundVault is Ownable {\r\n  using SafeMath for uint256;\r\n\r\n  enum State { Active, Refunding, Closed }\r\n\r\n  mapping (address => uint256) public deposited;\r\n  address public wallet;\r\n  State public state;\r\n\r\n  event Closed();\r\n  event RefundsEnabled();\r\n  event Refunded(address indexed beneficiary, uint256 weiAmount);\r\n\r\n  function RefundVault(address _wallet) public {\r\n    require(_wallet != address(0));\r\n    wallet = _wallet;\r\n    state = State.Active;\r\n  }\r\n\r\n  function deposit(address investor) onlyOwner public payable {\r\n    require(state == State.Active);\r\n    deposited[investor] = deposited[investor].add(msg.value);\r\n  }\r\n\r\n  function close() onlyOwner public {\r\n    require(state == State.Active);\r\n    state = State.Closed;\r\n    Closed();\r\n    wallet.transfer(this.balance);\r\n  }\r\n\r\n  function walletWithdraw(uint256 _value) onlyOwner public {\r\n    require(_value < this.balance);\r\n    wallet.transfer(_value);\r\n  }\r\n\r\n  function enableRefunds() onlyOwner public {\r\n    require(state == State.Active);\r\n    state = State.Refunding;\r\n    RefundsEnabled();\r\n  }\r\n\r\n  function refund(address investor) public {\r\n    require(state == State.Refunding);\r\n    uint256 depositedValue = deposited[investor];\r\n    deposited[investor] = 0;\r\n    investor.transfer(depositedValue);\r\n    Refunded(investor, depositedValue);\r\n  }\r\n}\r\n",
  "sourcePath": "C:\\Users\\Nagaganesh Jaladanki\\OneDrive\\Documents\\Coding\\GreenSparc_Project\\ICO\\contracts\\crowdsale\\RefundVault.sol",
  "compiler": {
    "name": "solc",
    "version": "0.4.18+commit.9cf6e910.Emscripten.clang"
  },
  "schemaVersion": "1.0.1",
  "updatedAt": "2018-01-31T22:49:12.475Z"
}